:020000040000FA
:100000000C942C010C945D010C945D010C945D0129
:100010000C945D010C945D010C945D010C945D01E8
:100020000C945D010C9400080C9400080C940008DA
:100030000C945D010C945D010C945D010C945D01C8
:100040000C945D010C945D010C945D010C945D01B8
:100050000C945D010C945D010C945D010C94F6060A
:100060000C945D010C945D010C945D010C945D0198
:100070000C945D010C945D010C945D010C945D0188
:100080000C945D010C945D010C945D010C945D0178
:100090000C945D010C945D010C945D010C945D0168
:1000A0000C945D010C945D010C945D010C945D0158
:1000B0000C945D010C945D010C945D010C945D0148
:1000C0000C945D010C945D010C945D010C94CA07C5
:1000D0000C94A0070C945D010C946A070C944007E3
:1000E0000C945D010C94B2010C94F4060C94D701AD
:1000F0000C94A1030C94BF010C94DB010C946708D1
:100100000C94F3060C94E5010C9493030C944303B4
:100110000C94BB010C94D3010C9470030C947F03DA
:100120000C94AA010C94C5010C94C9010C94E10132
:100130000C94A6010C94AE010C9494010C94300420
:100140000C94E3030C94B5010C94CD010C948F0135
:1001500000000A0B02090C0D0E0807030401000041
:10016000000000000000000000000000000000008F
:10017000000000000000000000000000121110004C
:10018000000000000000000000000000000000006F
:1001900000000000000000002200250028002B00C5
:1001A0002E003100340002010000050108010B019E
:1001B00000002100240027002A002D003000330019
:1001C00001010000040107010A01050505050705F5
:1001D00008080808020202020A0A080804040404C3
:1001E00001010101010101010303030303030303EF
:1001F000040707070C0C0C0C0C0C0C0C020202027E
:1002000006060606060606060B0B0B0B0B0B0B0B66
:100210000102102020080810204010204080020118
:1002200002010804020101020408102040808040FD
:1002300020100804020180040201804020100804FC
:10024000020108040201010204081020408001029A
:10025000040810204080670811241FBECFEFD1E2B0
:10026000DEBFCDBF00E00CBF12E0A0E0B2E0E2EBE9
:10027000F5E100E00BBF02C007900D92A032B1077C
:10028000D9F72DE0A0E2B2E001C01D92A33BB20776
:10029000E1F711E0CCE2D1E000E006C021970109CE
:1002A000802FFE010E94AA09CB32D10780E0080707
:1002B000A9F70E9400090C94D70A0C940000282F7B
:1002C00030E0F901E05BFE4F9491F901E05FFD4FF2
:1002D000449126533E4FF9012491222309F435C05D
:1002E000992311F191509231F8F4E92FF0E0882729
:1002F000E358FE4F8F4F0C94AA09AE01B2018F0153
:10030000A601AA019401B501BB01BF01C501C90144
:10031000CD01D301D7019401DB01E101E501809119
:1003200080008F7780938000E22FF0E0EE0FFF1FB8
:10033000EA56FE4FA591B4918FB7F894EC916111F4
:1003400048C040954E234C938FBF08958091800004
:100350008F7DE8CF80918000877FE4CF84B58F7751
:1003600084BDE2CF84B58F7DFBCF8091B0008F77C5
:100370008093B000D9CF8091B0008F7DF9CF80916C
:1003800090008F7780939000CFCF809190008F7DE9
:10039000F9CF80919000877FF5CF8091A0008F7773
:1003A0008093A000C1CF8091A0008F7DF9CF809174
:1003B000A000877FF5CF809120018F778093200167
:1003C000B3CF809120018F7DF9CF80912001877F6D
:1003D000F5CF4E2BB8CFCF93DF93EC018E819F8169
:1003E0009927FC01E05FFD4F249186539E4FFC014D
:1003F0008491882399F090E0880F991FFC01E055C3
:10040000FE4FA591B491FC01EA56FE4F859194915F
:100410008FB7F894EC91E22BEC938FBFEC81FD81C8
:100420008A819B81892B09F4E0C0138E128E118E74
:10043000108E178A168A82E490E0958F848F8485C7
:1004400096EF980F943048F02EEC280F243028F0C7
:1004500022EC280F283008F055C02FE030E0378B11
:10046000268B20E430E0318F208F27E230E0338F7D
:10047000228F943050F02EEC280F243030F022ECF4
:10048000280FB0E0A0E0283010F4A8E6B0E02C91EE
:10049000943028F032EC380F383008F489C031E05D
:1004A000232B943048F09EEC980F943028F08E5314
:1004B000B0E0A0E0883010F4A8E6B0E02C932485EA
:1004C00036EF320F343008F475C08EEC820F843072
:1004D00008F470C082EC820F883008F06EC08DE6A0
:1004E00090E0948B838B343008F06AC02650330B35
:1004F00081E001C0880F2A95EAF7858B848D958D60
:100500000197F1F7828D938D892B41F140912B0258
:1005100050912C024E175F0709F14115510569F002
:10052000DA0153962D913C91D9019C91DA015596AF
:100530008C9180958923D9018C93868D8E7F868FAF
:1005400010922A0210922902F0932C02E0932B02BF
:10055000A389B4898C919589892B8C9368858E8128
:100560000E945F01FE01E65FFA4F1182108234970C
:10057000118210827C9681E090E091838083729753
:1005800091838083329683E090E0918380833296DA
:1005900084E090E091838083329685E090E09183BF
:1005A0008083C85EDA4F99838883DF91CF91089565
:1005B00034E076CF8BE690E094CF90E080E091CF6E
:1005C00088E0223309F499CF84E0233309F495CFEE
:1005D00082E0243309F491CF82EC820F883018F442
:1005E0002E53330B85CF81E088CFA089B18982E07B
:1005F0008C93A089B1891C92A485B5851C92A6858F
:10060000B78580E18C93108EA489B58986E08C93A0
:10061000A289B3898C9180618C93A289B3898C91D2
:1006200088608C93A289B3898C9180688C930288AE
:10063000F389E02D80818F7D808390CF3FB7F89440
:100640008091250290912602A0912702B091280264
:1006500026B5A89B05C02F3F19F00196A11DB11D1D
:100660003FBFBA2FA92F982F8827BC01CD01620F59
:10067000711D811D911D42E0660F771F881F991F14
:100680004A95D1F70895AF92BF92CF92DF92EF9241
:10069000FF920F931F93CF93DF936C017B018B012C
:1006A000040F151FEB015E01AE18BF08C017D1077C
:1006B00059F06991D601ED91FC910190F081E02D06
:1006C000C6011995892B79F7C501DF91CF911F914B
:1006D0000F91FF90EF90DF90CF90BF90AF90089573
:1006E000FC01538D448D252F30E0842F90E0821B38
:1006F000930B541710F0CF96089501970895FC01BD
:10070000918D828D981761F0A28DAE0FBF2FB11D14
:100710005D968C91928D9F5F9F73928F90E008956C
:100720008FEF9FEF0895FC01918D828D981731F026
:10073000828DE80FF11D858D90E008958FEF9FEF7A
:100740000895FC01918D228D892F90E0805C9F4F50
:10075000821B91098F73992708958DE292E00E9480
:10076000A10321E0892B09F420E0822F08958EEE69
:1007700097E00E94A10321E0892B09F420E0822F59
:100780000895FC01A48DA80FB92FB11DA35ABF4F26
:100790002C91848D90E001968F739927848FA68980
:1007A000B7892C93A089B1898C91837080648C93D4
:1007B000938D848D981306C00288F389E02D808183
:1007C0008F7D80830895EF92FF920F931F93CF93B5
:1007D000DF93EC0181E0888F9B8D8C8D98131AC07C
:1007E000E889F989808185FF15C09FB7F894EE8963
:1007F000FF896083E889F9898081837080648083C0
:100800009FBF81E090E0DF91CF911F910F91FF900A
:10081000EF900895F62E0B8D10E00F5F1F4F0F73B2
:100820001127E02E8C8D8E110CC00FB607FCFACF6D
:10083000E889F989808185FFF5CFCE010E94C10347
:10084000F1CFEB8DEC0FFD2FF11DE35AFF4FF0823E
:100850009FB7F8940B8FEA89FB8980818062CFCFA4
:10086000CF93DF93EC01888D8823B9F0AA89BB89E7
:10087000E889F9898C9185FD03C0808186FD0DC0D2
:100880000FB607FCF7CF8C9185FFF2CF808185FFF3
:10089000EDCFCE010E94C103E9CFDF91CF91089542
:1008A00080E090E0892B49F080E090E0892B29F0EE
:1008B0000E94000081110E94000080E090E0892BDE
:1008C00049F080E090E0892B29F00E94000081111E
:1008D0000E94000080E090E0892B29F00E94B7037D
:1008E00081110E94000080E090E0892B29F00E9495
:1008F000AD0381110C9400000895CF93DF93EC01B8
:100900008C819D81DC01ED91FC910084F185E02DCD
:100910001995892B51F08C819D81DC01ED91FC9121
:100920000284F385E02D1995EBCFDF91CF910895E7
:100930002F923F924F925F926F927F928F929F92EF
:10094000AF92BF92CF92DF92EF92FF920F931F93DD
:10095000CF93DF93EC018C01065F1A4FD8011D92F3
:100960001C921C01BAEF2B1A3B0A81E090E0F101C6
:10097000918380837E01F8EFEF1AFAEFFF0AD70127
:100980001D921C928C819D81DC01ED91FC91008473
:10099000F185E02D19956C01892B51F08C819D8199
:1009A000DC01ED91FC910284F385E02D1995EACFED
:1009B0005E01B8EFAB1ABDEFBB0A8FEF90E0F50117
:1009C0009183808332969183808332969183808352
:1009D00032961182108285E090E0DE01A05FBD4F6B
:1009E00011969C938E9383EF90E0129611969C93B0
:1009F0008E93AC50BE4F8D919C911197A25FB140E8
:100A000011969C938E93AC50BE4F8D919C911197F3
:100A1000A25FB14011969C938E93AC50BE4F8D91C6
:100A20009C911197A25FB1408D939C939E01265E8D
:100A30003D4F90E080E041915191840F951FE21766
:100A4000F307C9F7809590959183808368858E819F
:100A50000E945F014E01F4EE8F1AFDEF9F0AD5014F
:100A60006C91B2E0AB0EB11C8C819D81DC01ED91EB
:100A7000FC910190F081E02D1995A814B90479F743
:100A80008C819D81DC01ED91FC910680F781E02D48
:100A9000199569858E810E945F0181E090E0F801DF
:100AA00091838083FE01E45FFA4F808191810297F8
:100AB0000CF461C0349680819181019709F052C095
:100AC00087E090E0D7018D939C9357E0C52ED12C01
:100AD000FE01EE5DFA4F80819181019721F50E9420
:100AE0001E032B013C0136E9832E912CA12CB12C45
:100AF0000E941E036419750986099709683E7340B0
:100B000081059105A8F3B1E08B1A9108A108B108FD
:100B1000E8EE4E0EE3E05E1E611C711C8114910430
:100B2000A104B10429F73E012AE0620E711CB12C28
:100B3000A12C912C812C8C819D81DC01ED91FC916B
:100B40000084F185E02D1995892B09F005C1BFEFCF
:100B50008B1A9B0AE2E48E16E6E09E0661F781E0BE
:100B600090E01CC18BE090E0F701918380834BE023
:100B7000C42ED12CADCFD7011D921C92F101118250
:100B80001082D7018D919C918C159D0589F0FE01F5
:100B9000EE5EFA4F0190F081E02DEC5FFE4FEE0F1C
:100BA000FF1FEC0FFD1F208131812E3F310591F495
:100BB000009781F4FE01EA5EFA4F208131812C5FBB
:100BC0003E4F220F331FC20FD31F28813981213F8F
:100BD000310539F082E090E0F8019183808381E073
:100BE00090E0DF91CF911F910F91FF90EF90DF90F8
:100BF000CF90BF90AF909F908F907F906F905F90BD
:100C00004F903F902F900895B4E0AB16B1040CF4D0
:100C1000E6C02A853B852F3F310551F48C859D85A3
:100C20008F3F910529F48E859F858F3F910589F02F
:100C3000D8018D919C91119780688D939C932F3F43
:100C4000310599F0F80180819181806891838083DA
:100C5000C1C0828593856817790751F0D8018D91BD
:100C60009C91119780688D939C9390E080E035C0B3
:100C7000DE01AC5EBA4F0D90BC91A02D1596AA0F67
:100C8000BB1FAD014C0F5D1FCE018A5E9A4FDC0188
:100C90008D919C919501281B390BC901DA012D9189
:100CA0003C9128173907D1F6DE01509690E080E09C
:100CB00023E030E04D915D91840F951F2F5F3F4FF2
:100CC000A216B306B9F78F3F910539F0D8012D91DF
:100CD0003C91119720682D933C932C853D852F3FA7
:100CE000310509F0AFCF2E853F852F3F310509F043
:100CF000A9CF228533856217730709F0A3CFFE01C0
:100D0000EC5EFA4F0190F081E02D3596EE0FFF1F5B
:100D1000EC0FFD1FDE01AA5EBA4F2D913C91A5019B
:100D2000421B530B9A01408151814217530709F02E
:100D300089CFFE01709623E030E041915191840FFC
:100D4000951F2F5F3F4FA216B306B9F799278F3F24
:100D5000910509F077CF43C08C819D81DC01ED9135
:100D6000FC910084F185E02D1995009749F08C8164
:100D70009D81DC01ED91FC910284F385E02D1995B4
:100D8000F301819391933F01FFEFAF1ABF0ACA1499
:100D9000DB0409F0CECE560190E080E0FE01EE5E6D
:100DA000FA4F0190F081E02DEE0FFF1FEC0FFD1FB9
:100DB000DF01A85FBD4F6D917C916E3F710579F0A9
:100DC000892B09F421CFD8018D919C9111978064D2
:100DD0008D939C93CE010E947D04B12CA12CD70150
:100DE000AD92BC92CBCE08950C944E0A1F920F92F6
:100DF0000FB60F9211242F933F938F939F93AF932E
:100E0000BF938091210290912202A0912302B09180
:100E100024023091200223E0230F2D3758F501964C
:100E2000A11DB11D209320028093210290932202E4
:100E3000A0932302B0932402809125029091260270
:100E4000A0912702B09128020196A11DB11D8093A7
:100E5000250290932602A0932702B0932802BF9107
:100E6000AF919F918F913F912F910F900FBE0F9057
:100E70001F90189526E8230F0296A11DB11DD2CF11
:100E80001F920F920FB60F9211240BB60F922F9351
:100E90003F934F935F936F937F938F939F93AF9302
:100EA000BF93EF93FF938DE292E00E94C103FF9105
:100EB000EF91BF91AF919F918F917F916F915F91D2
:100EC0004F913F912F910F900BBE0F900FBE0F903F
:100ED0001F9018951F920F920FB60F9211240BB608
:100EE0000F922F938F939F93EF93FF93E0913D0287
:100EF000F0913E028081E0914302F091440282FD34
:100F00001DC09081809146028F5F8F7320914702B0
:100F1000821741F0E0914602F0E0E35DFD4F958FCE
:100F200080934602FF91EF919F918F912F910F90A7
:100F30000BBE0F900FBE0F901F9018958081F2CFBF
:100F40001F920F920FB60F9211240BB60F922F9390
:100F50003F934F935F936F937F938F939F93AF9341
:100F6000BF93EF93FF938EEE97E00E94C103FF9132
:100F7000EF91BF91AF919F918F917F916F915F9111
:100F80004F913F912F910F900BBE0F900FBE0F907E
:100F90001F9018951F920F920FB60F9211240BB647
:100FA0000F922F938F939F93EF93FF93E091FE0700
:100FB000F091FF078081E0910408F091050882FD1F
:100FC0001DC09081809107088F5F8F732091080862
:100FD000821741F0E0910708F0E0E251F84F958F59
:100FE00080930708FF91EF919F918F912F910F9020
:100FF0000BBE0F900FBE0F901F9018958081F2CFFF
:101000001F920F920FB60F9211240BB60F922F93CF
:101010003F938F939F93AF93BF93CF93DF93EF93C0
:10102000FF93E0912B02F0912C02309749F0A685B6
:10103000B7859585868D81FF14C08C918923A1F495
:10104000FF91EF91DF91CF91BF91AF919F918F91E0
:101050003F912F910F900BBE0F900FBE0F901F90DE
:1010600018958C91892361F7A389B4899C9185890E
:10107000809589238C93868997890197F1F7208D34
:10108000318DC685D78588E0D9011197F1F7988110
:101090008150D1F780912A0290E001968F739927B1
:1010A00020912902281779F090912A0280932A0230
:1010B000828D938D0197F1F7A389B4898C919589DD
:1010C000892B8C93BDCF868D8160868FF1CFCF9396
:1010D000DF93EDE2F2E01382128248EE53E060E02B
:1010E00070E044835583668377838AE092E091833E
:1010F000808325E331E03587248724E331E0378797
:10110000268720E331E0318B208B21E331E0338BE4
:10111000228B22E331E0358B248B26E331E0378BC1
:10112000268B118E128E138E148EAEEEB7E01396B0
:101130001C921E92129714964D935D936D937C931F
:10114000179711969C938E9385ED90E01D969C9336
:101150008E931C9784ED90E01F969C938E931E9720
:1011600080ED90E051969C938E93509781ED90E0A6
:1011700053969C938E93529782ED90E055969C9354
:101180008E93549786ED90E057969C938E93569746
:1011900059961C9259975A961C925A975B961C9294
:1011A0005B975C961C925C97CBE8D8E02CE132E030
:1011B000398328831B821A82BD83AC8382E090E04E
:1011C0009F838E8381E088871986AAECB2E011960E
:1011D0003C932E9313961C921E9212971596FC9395
:1011E000EE93149723E030E017963C932E931697D6
:1011F00018968C93189719961C92DF91CF910895A9
:10120000789484B5826084BD84B5816084BD85B5E1
:10121000826085BD85B5816085BD80916E008160ED
:1012200080936E0010928100809181008260809393
:101230008100809181008160809381008091800095
:101240008160809380008091B10084608093B100C0
:101250008091B00081608093B000809191008260A5
:1012600080939100809191008160809391008091A2
:1012700090008160809390008091A10082608093B3
:10128000A1008091A10081608093A1008091A000C5
:1012900081608093A0008091210182608093210170
:1012A00080912101816080932101809120018160E2
:1012B0008093200180917A00846080937A008091ED
:1012C0007A00826080937A0080917A0081608093B6
:1012D0007A0080917A00806880937A001092C10031
:1012E0008BE898E00E94EB018AEC92E00E94EB010F
:1012F00086E8E82EF12C04EC10E0C9E0D0E08AEC9E
:1013000092E00E947D04F092D106E092D006109304
:10131000D3060093D206D093D506C093D4068AECA8
:1013200092E00E9498048BE898E00E947D04F0927D
:10133000920CE092910C1093940C0093930CD09328
:10134000960CC093950C8BE898E00E9498040E943C
:101350005004D5CFEE0FFF1F881F8BBF0790F6916B
:10136000E02D19940F931F93CF93DF938230910553
:1013700010F482E090E0E091B10DF091B20D30E018
:1013800020E0B0E0A0E0309799F42115310509F490
:101390004AC0281B390B24303105D8F58A819B813E
:1013A0006115710589F1FB0193838283FE0111C0F0
:1013B000408151810281138148175907E0F0481795
:1013C000590799F4109761F012960C93129713969F
:1013D0001C933296CF01DF91CF911F910F91089509
:1013E0000093B10D1093B20DF4CF2115310551F0DA
:1013F0004217530738F0A901DB019A01BD01DF0153
:10140000F801C1CFEF01F9CF9093B20D8093B10DE8
:10141000CDCFFE01E20FF31F81939193225031094A
:1014200039832883D7CF2091AF0D3091B00D232B76
:1014300041F420910202309103023093B00D2093C9
:10144000AF0D20910002309101022115310541F4C8
:101450002DB73EB74091040250910502241B350B75
:10146000E091AF0DF091B00DE217F307A0F42E1B41
:101470003F0B2817390778F0AC014E5F5F4F2417F8
:10148000350748F04E0F5F1F5093B00D4093AF0DDE
:10149000819391939FCFF0E0E0E09CCFCF93DF93D7
:1014A0000097E9F0FC01329713821282A091B10DEE
:1014B000B091B20DED0130E020E01097A1F4208151
:1014C0003181820F931F2091AF0D3091B00D2817FD
:1014D000390709F061C0F093B00DE093AF0DDF91D3
:1014E000CF910895EA01CE17DF07E8F54A815B81C5
:1014F0009E0141155105B1F7E901FB83EA8349914A
:101500005991C40FD51FEC17FD0761F480819181BB
:101510000296840F951FE9019983888382819381C4
:101520009B838A83F0E0E0E012968D919C91139763
:101530000097B9F52D913C911197CD010296820F3C
:10154000931F2091AF0D3091B00D2817390739F650
:10155000309751F51092B20D1092B10DB093B00DBD
:10156000A093AF0DBCCFD383C28340815181840F40
:10157000951FC817D90761F44E5F5F4F8881998125
:10158000480F591F518340838A819B8193838283B3
:101590002115310509F0B0CFF093B20DE093B10DF4
:1015A0009ECFFD01DC01C0CF13821282D7CFF89409
:1015B000FFCF0000B30D800000000000E3034303F1
:1015C00070033004A1037F03930300000000F306BF
:0215D000F4061F
:020000040003F7
:10E000000D9489F10D94B2F10D94B2F10D94B2F129
:10E010000D94B2F10D94B2F10D94B2F10D94B2F1F0
:10E020000D94B2F10D94B2F10D94B2F10D94B2F1E0
:10E030000D94B2F10D94B2F10D94B2F10D94B2F1D0
:10E040000D94B2F10D94B2F10D94B2F10D94B2F1C0
:10E050000D94B2F10D94B2F10D94B2F10D94B2F1B0
:10E060000D94B2F10D94B2F10D94B2F10D94B2F1A0
:10E070000D94B2F10D94B2F10D94B2F10D94B2F190
:10E080000D94B2F10D94B2F10D94B2F10D94B2F180
:10E090000D94B2F10D94B2F10D94B2F10D94B2F170
:10E0A0000D94B2F10D94B2F10D94B2F10D94B2F160
:10E0B0000D94B2F10D94B2F10D94B2F10D94B2F150
:10E0C0000D94B2F10D94B2F10D94B2F10D94B2F140
:10E0D0000D94B2F10D94B2F10D94B2F10D94B2F130
:10E0E0000D94B2F141546D656761323536300041AF
:10E0F000726475696E6F206578706C6F72657220DE
:10E1000073746B3530305632206279204D4C530099
:10E11000426F6F746C6F616465723E004875683F52
:10E1200000436F6D70696C6564206F6E203D200048
:10E130004350552054797065202020203D20005FF9
:10E140005F4156525F415243485F5F3D2000415658
:10E1500052204C696243205665723D20004743437C
:10E160002056657273696F6E203D20004350552024
:10E1700049442020202020203D20004C6F7720663D
:10E18000757365202020203D20004869676820665F
:10E190007573652020203D200045787420667573D6
:10E1A00065202020203D20004C6F636B2066757336
:10E1B000652020203D20004D617220203720323024
:10E1C000313300312E362E3800342E332E350056A2
:10E1D00023202020414444522020206F7020636F70
:10E1E00064652020202020696E73747275637469E1
:10E1F0006F6E2061646472202020496E74657272B3
:10E20000757074006E6F20766563746F7200726A49
:10E210006D702020006A6D70200057686174207056
:10E220006F72743A00506F7274206E6F7420737541
:10E2300070706F72746564004D7573742062652030
:10E2400061206C6574746572002000577269747483
:10E25000696E672045450052656164696E672045B7
:10E26000450045452065727220636E743D00504F35
:10E27000525400303D5A65726F2061646472003FF1
:10E280003D43505520737461747300403D454550C3
:10E29000524F4D207465737400423D426C696E6B41
:10E2A000204C454400453D44756D70204545505215
:10E2B0004F4D00463D44756D7020464C415348001B
:10E2C000483D48656C70004C3D4C69737420492F83
:10E2D0004F20506F72747300513D51756974005234
:10E2E0003D44756D702052414D00563D73686F7707
:10E2F00020696E7465727275707420566563746FF0
:10E30000727300593D506F727420626C696E6B00BD
:10E310002A0011241FBECFEFD1E2DEBFCDBF01E046
:10E320000CBF12E0A0E0B2E0EEE1FDEF03E00BBFB6
:10E3300002C007900D92A030B107D9F712E0A0E01B
:10E34000B2E001C01D92AE30B107E1F70F9460F367
:10E350000D948DFE01E20EBF0FEF0DBF11241FBE05
:10E360000D9460F30D9400F020E030E040ED57E0B4
:10E3700005C0FA013197F1F72F5F3F4F2817390792
:10E38000C0F308959C01260F311DC901A0E0B0E043
:10E390002F5F3F4FABBFFC018791882361F08093D3
:10E3A000C6008091C00086FFFCCF8091C0008064D1
:10E3B0008093C000EACF08958DE08093C6008091DD
:10E3C000C00086FFFCCF8091C00080648093C000B5
:10E3D0008AE08093C6008091C00086FFFCCF8091C8
:10E3E000C00080648093C00008950F94C2F10F9420
:10E3F000DCF10895FC019081992359F09093C600B7
:10E400008091C00086FFFCCF8091C0008064809323
:10E41000C0003196992379F70895282F982F929567
:10E420009F70892F805D8A3308F0895F8093C600D2
:10E430008091C00086FFFCCF8091C00080648093F3
:10E44000C000822F8F70982F905D9A3308F0995FEB
:10E450009093C6008091C00086FFFCCF8091C000E1
:10E4600080648093C00008959C01FB01853691056E
:10E470001CF46330710594F0C90164E670E00F94F8
:10E480002EFE605D7F4F6093C6008091C00086FFC6
:10E49000FCCF8091C00080648093C0002B30310598
:10E4A00014F43297B4F0C90164E670E00F942EFEC4
:10E4B0006AE070E00F942EFE605D7F4F6093C600AF
:10E4C0008091C00086FFFCCF8091C0008064809363
:10E4D000C000C9016AE070E00F942EFEC0968093E0
:10E4E000C6008091C00086FFFCCF8091C000806490
:10E4F0008093C00008951F93182F8EE692EE60E07F
:10E500000F94C2F11093C6008091C00086FFFCCF2B
:10E510008091C00080648093C0000F94DCF11F9153
:10E5200008952F923F924F925F926F927F928F92B7
:10E530009F92AF92BF92CF92DF92EF92FF920F9392
:10E540001F93DF93CF93CDB7DEB762970FB6F894E2
:10E55000DEBF0FBECDBF382E622ECA01DB015C01CB
:10E560006D01772420E2222E2E010894411C511CBB
:10E570008BC081E0A81680E0B80681E0C80680E084
:10E58000D80628F0C601AA27BB270F940DF2BB2797
:10E59000AD2D9C2D8B2D0F940DF28A2D0F940DF225
:10E5A0002092C6008091C00086FFFCCF8091C00001
:10E5B00080648093C0009DE29093C6008091C0006B
:10E5C00086FFFCCF8091C00080648093C0002092C1
:10E5D000C6008091C00086FFFCCF8091C00080649F
:10E5E0008093C00019828601750188249924A1E0D6
:10E5F0003A1651F03A1620F0B2E03B1661F409C029
:10E600000BBFF701779007C0C7010F9477FE782EF4
:10E6100002C0F7017080872D0F940DF22092C60082
:10E620008091C00086FFFCCF8091C0008064809301
:10E63000C000872D8052F401EF70F0708F3520F408
:10E64000E40DF51D708204C0E40DF51D8EE280839B
:10E650000894E11CF11C011D111D0894811C911CE2
:10E6600090E18916910409F0C2CF80E190E0A0E02A
:10E67000B0E0A80EB91ECA1EDB1E198AC2010F9493
:10E68000FAF10F94DCF16A94662009F072CF629679
:10E690000FB6F894DEBF0FBECDBFCF91DF911F91B3
:10E6A0000F91FF90EF90DF90CF90BF90AF909F9031
:10E6B0008F907F906F905F904F903F902F90089534
:10E6C0002F923F924F925F926F927F928F929F9282
:10E6D000AF92BF92CF92DF92EF92FF920F931F9370
:10E6E000DF93CF93CDB7DEB7CD53D1400FB6F894BB
:10E6F000DEBF0FBECDBF01E20EBF0FEF0DBF94B75F
:10E70000F894A89514BE80916000886180936000A1
:10E7100010926000789493FF05C0E0910002F091A0
:10E7200001021995279A2F9A8091C00082608093E8
:10E73000C00080E18093C40088E18093C1000000A4
:10E74000EE24FF24870144E0A42EB12CCC24DD2448
:10E7500024C0C5010197F1F70894E11CF11C011DCB
:10E76000111D21E2E2162EE4F20620E0020720E06D
:10E77000120718F031E0C32ED12CC801B70127ECE5
:10E780003BE140E050E00F9441FE611571058105C9
:10E79000910519F485B1805885B98091C00087FD35
:10E7A00003C0C114D104A9F2A6014F5F5F4FC25E3E
:10E7B000DE4F59834883CE51D140C25EDE4F8881FF
:10E7C0009981CE51D140019711F00D9410FEC05D9A
:10E7D000DE4F19821882C053D14060E0C15DDE4F28
:10E7E0001882CF52D14088249924C35DDE4F19820C
:10E7F0001882CD52D140C05EDE4F188219821A8233
:10E800001B82C052D140CE5CDE4F188219821A8220
:10E810001B82C253D140EE24FF2487010BBFF701B6
:10E8200007911691C45CDE4F19830883CC53D14005
:10E830000D940BFEC25EDE4F28813981CE51D1404E
:10E840002130310509F52091C600C25EDE4F1982E4
:10E850001882CE51D14022C02F5F3F4F4F4F5F4FA4
:10E86000213082E138078AE7480780E0580780F0C6
:10E87000C45CDE4FE881F981CC53D140EF5FFF4F9C
:10E8800019F0EE27FF27099420E030E040E050E047
:10E890008091C00087FFE0CF2091C600C35DDE4FAE
:10E8A00048815981CD52D1404F5F5F4FC35DDE4FEC
:10E8B00059834883CD52D140213209F063C64A3092
:10E8C000510508F05FC60894811C911C53E0851621
:10E8D000910409F059C600E010E018C081E280936D
:10E8E000C6008091C00086FFFCCF8091C00080648C
:10E8F0008093C0002F5F3F4F2931310579F70F9486
:10E90000DCF10F5F1F4F0530110519F020E030E0FA
:10E91000E5CF10920A0210920B0210920C02109294
:10E920000D02109206021092070210920802109235
:10E930000902109202021092030210920402109235
:10E9400005028FEE90EE60E00F94F5F180E191EE1C
:10E9500060E00F94C2F18091C00087FFFCCF9091DE
:10E96000C600903608F09F759032B8F09093C600BC
:10E970008091C00086FFFCCF8091C00080648093AE
:10E98000C000A0E2A093C6008091C00086FFFCCF2B
:10E990008091C00080648093C000983409F4D7C18E
:10E9A0009934B8F4923409F459C1933458F490333B
:10E9B00019F1903308F4E3C59F33A1F1903409F0C5
:10E9C000DEC5BDC0953409F470C1963409F0D7C5D1
:10E9D00098C1923509F42BC2933538F49C3409F46C
:10E9E000F5C1913509F0CBC518C2963509F445C279
:10E9F000993509F0C4C567C483E792EE62E00F94CD
:10EA0000F5F110920602109207021092080210927D
:10EA1000090210920A0210920B0210920C0210923C
:10EA20000D0213C18FE792EE62E00F94F5F18FEEC5
:10EA300090EE60E00F94F5F181E291EE60E00F94CA
:10EA4000C2F187EB91EE60E00F94F5F180E391EE77
:10EA500060E00F94C2F184EE90EE60E00F94F5F167
:10EA60008FE391EE60E00F94C2F186E090E061E008
:10EA700070E00F9434F20F94DCF18DE591EE60E0DC
:10EA80000F94C2F189EC91EE60E00F94F5F18EE401
:10EA900091EE60E00F94C2F183EC91EE60E00F9490
:10EAA000F5F18CE691EE60E00F94C2F18EE10F94E7
:10EAB0000DF288E90F940DF281E00F940DF20F949E
:10EAC000DCF18BE791EE60E00F94C2F119E0E0E039
:10EAD000F0E010935700E4918E2F0F940DF20F94F5
:10EAE000DCF18AE891EE60E00F94C2F1E3E0F0E03F
:10EAF00010935700E4918E2F0F940DF20F94DCF1D8
:10EB000089E991EE60E00F94C2F1E2E0F0E0109349
:10EB10005700E4918E2F0F940DF20F94DCF188EAE8
:10EB200091EE60E00F94C2F1E1E0F0E01093570045
:10EB30001491812F0F940DF20F94DCF107CF8BE825
:10EB400092EE62E00F94F5F18BE492EE60E00F94A8
:10EB5000F5F10F94DCF100E010E019C0C8016F2D51
:10EB60000F947FFEFF2031F489E492EE60E00F9471
:10EB7000C2F10BC0F092C6008091C00086FFFCCFAE
:10EB80008091C00080648093C0000F5F1F4FC80158
:10EB900081519F41A0E0B0E0ABBFFC01F790BAE229
:10EBA000FB1621F0E2E000301E07C1F60F94DCF105
:10EBB0000F94DCF187E592EE60E00F94F5F10F948D
:10EBC000DCF1CC24DD2400E010E01EC0C8010F946D
:10EBD00077FEF82E882331F489E492EE60E00F94FA
:10EBE000C2F10BC08093C6008091C00086FFFCCFAD
:10EBF0008091C00080648093C000FE1419F00894D6
:10EC0000C11CD11C0F5F1F4FC80181519F41A0E063
:10EC1000B0E0ABBFFC01E790FAE2EF1621F022E092
:10EC20000030120799F60F94DCF10F94DCF182E6C4
:10EC300092EE60E00F94C2F1C60161E070E00F94C3
:10EC400034F20F94DCF10F94DCF110920202109276
:10EC50000302109204021092050278CE89E992EE26
:10EC600062E00F94F5F1279A2F9A16C02F9880E052
:10EC700090E0E0EDF7E03197F1F7019684369105E9
:10EC8000C1F72F9A80E090E0E0EDF7E03197F1F7DF
:10EC9000019684369105C1F78091C00087FFE6CFC9
:10ECA0008091C00087FFFCCF64C485EA92EE62E0E9
:10ECB0000F94F5F140910202509103026091040219
:10ECC0007091050281E020E10F9491F2809102029F
:10ECD00090910302A0910402B091050280509F4FD1
:10ECE000AF4FBF4F8093020290930302A0930402A0
:10ECF000B093050280509041A040B04008F426CE69
:10ED0000A4CF83EB92EE62E00F94F5F140910602FE
:10ED100050910702609108027091090280E020E1A1
:10ED20000F9491F28091060290910702A09108023F
:10ED3000B091090280509F4FAF4FBF4F80930602A2
:10ED400090930702A0930802B0930902FFCD80ECD4
:10ED500092EE62E00F94F5F183E792EE60E00F949B
:10ED6000F5F18FE792EE60E00F94F5F18BE892EE0B
:10ED700060E00F94F5F189E992EE60E00F94F5F10F
:10ED800085EA92EE60E00F94F5F183EB92EE60E09D
:10ED90000F94F5F180EC92EE60E00F94F5F187ECC2
:10EDA00092EE60E00F94F5F188ED92EE60E00F9442
:10EDB000F5F18FED92EE60E00F94F5F18AEE92EEB0
:10EDC00060E00F94F5F183E093EEBDCD87EC92EE19
:10EDD00062E00F94F5F181E40F947BF282E40F94EA
:10EDE0007BF283E40F947BF284E40F947BF285E45E
:10EDF0000F947BF286E40F947BF287E40F947BF20E
:10EE000088E40F947BF28AE40F947BF28BE40F94F6
:10EE10007BF28CE40F947BF299CD88ED92EE62E068
:10EE20000F94F5F1772473948824992409C48FED05
:10EE300092EE62E00F94F5F140910A0250910B02BC
:10EE400060910C0270910D0282E020E10F9491F22A
:10EE500080910A0290910B02A0910C02B0910D02D8
:10EE600080509F4FAF4FBF4F80930A0290930B0289
:10EE7000A0930C02B0930D0269CD8AEE92EE62E08F
:10EE80000F94F5F184EE90EE60E00F94F5F18FECC5
:10EE900091EE60E00F94F5F1662477244301CC5D98
:10EEA000DE4F19821882C452D140D401C301B695F5
:10EEB000A79597958795CA5DDE4F88839983AA8326
:10EEC000BB83C652D140CC5DDE4FA881B981C4520C
:10EED000D1401196CC5DDE4FB983A883C452D14096
:10EEE000CD0162E070E00F9434F2B0E2B093C6005E
:10EEF0008091C00086FFFCCF8091C0008064809329
:10EF0000C000EDE2E093C6008091C00086FFFCCF18
:10EF10008091C00080648093C000F0E2F093C6004E
:10EF20008091C00086FFFCCF8091C00080648093F8
:10EF3000C000CA5DDE4FE880F9800A811B81C6529D
:10EF4000D140BB27A12F902F8F2D0F940DF2CA5DBA
:10EF5000DE4F8881C652D1400F940DF2B0E2FB2EF5
:10EF6000F092C6008091C00086FFFCCF8091C00067
:10EF700080648093C0000DE30093C6008091C000C0
:10EF800086FFFCCF8091C00080648093C00010E2B7
:10EF90001093C6008091C00086FFFCCF8091C00016
:10EFA00080648093C0008BBEF3012791C65DDE4F65
:10EFB0002883CA52D140A22EBB24CC24DD2408943D
:10EFC000611C711C811C911C8BBEF3018791282E42
:10EFD0003324442455240894611C711C811C911C09
:10EFE0008BBEF3013791C55DDE4F3883CB52D140E4
:10EFF0000894611C711C811C911C8BBEF30147910C
:10F00000C45DDE4F4883CC52D140ADEFEA2EAFEF66
:10F01000FA2EAFEF0A2FAFEF1A2F6E0C7F1C801E57
:10F02000911E142D032DF22CEE24EA0CFB1C0C1D5A
:10F030001D1D0F940DF220E22093C6008091C000A8
:10F0400086FFFCCF8091C00080648093C000C65DC5
:10F05000DE4F8881CA52D1400F940DF230E23093D6
:10F06000C6008091C00086FFFCCF8091C000806404
:10F070008093C000C45DDE4F8881CC52D1400F9494
:10F080000DF240E24093C6008091C00086FFFCCFA5
:10F090008091C00080648093C000C55DDE4F888190
:10F0A000CB52D1400F940DF250E25093C6008091A4
:10F0B000C00086FFFCCF8091C00080648093C000B8
:10F0C0008FEFE8168FEFF80680E0080780E018075A
:10F0D00031F484E092EE60E00F94C2F1DFC0D80119
:10F0E000C7018070907CA070B0708050904CA040A0
:10F0F000B040D1F52FEF3FE340E050E0E222F322B1
:10F1000004231523CA5DDE4FA880B980CA80DB8046
:10F11000C652D140AE0CBF1CC01ED11EAA0CBB1CD7
:10F12000CC1CDD1C8EE092EE60E00F94C2F1BB2798
:10F13000A12F902F8F2D0F940DF28E2D0F940DF285
:10F1400030E23093C6008091C00086FFFCCF8091F2
:10F15000C00080648093C0004EE34093C60080915D
:10F16000C00086FFFCCF87C08EE09EEFA0E0B0E03D
:10F17000E822F9220A231B239CE0E91694E9F90608
:10F1800090E0090790E0190709F088C0C45DDE4FE0
:10F19000A881CC52D140EA2EFF2400E010E0102FCD
:10F1A0000F2DFE2CEE24C55DDE4FB881CB52D14031
:10F1B000EB0EF11C011D111DD601C501817090706F
:10F1C000A070B070DC0199278827E80EF91E0A1F8D
:10F1D0001B1F20EF30E040E050E0A222B322C42207
:10F1E000D52241E1AA0CBB1CCC1CDD1C4A95D1F7F1
:10F1F000EA0CFB1C0C1D1D1D81E090E0A0E0B0E0BE
:10F20000282239224A225B2235E1220C331C441C7D
:10F21000551C3A95D1F7E20CF31C041D151D57013E
:10F220006801AA0CBB1CCC1CDD1C85E192EE60E0E1
:10F230000F94C2F1C801AA27BB270F940DF2BB2778
:10F24000A12F902F8F2D0F940DF28E2D0F940DF274
:10F2500090E29093C6008091C00086FFFCCF809121
:10F26000C00080648093C000AEE3A093C60080918C
:10F27000C00086FFFCCF8091C00080648093C000F6
:10F28000C601AA27BB270F940DF2BB27AD2D9C2DDD
:10F290008B2D0F940DF28A2D0F940DF20F94DCF14B
:10F2A000CC5DDE4FE881F981C452D140F99709F471
:10F2B0004DCBF4E0EF2EF12C012D112D6E0C7F1CA7
:10F2C000801E911EF2CD83E093EE62E00F94F5F183
:10F2D0008AE192EE60E00F94C2F18091C00087FF56
:10F2E000FCCF1091C6001F751093C6008091C0001E
:10F2F00086FFFCCF8091C00080648093C0000F9493
:10F30000DCF1812F81548A3108F036C1163409F4BA
:10F3100095C0173490F4133409F44EC0143430F40B
:10F320001134F1F0123409F01DC130C0143409F465
:10F3300059C0153409F016C16BC01A3409F4C4C0A1
:10F340001B3438F4173409F48FC0183409F00AC19B
:10F35000A1C01B3409F4D2C01C3409F003C1E8C0B9
:10F360008FEF81B90DC082B1809582B980E090E0C5
:10F37000E0EDF7E03197F1F70196883C9105C1F790
:10F380008091C00087FFEFCF12B8EFC08FEF84B934
:10F390000DC085B1809585B980E090E0E0EDF7E0A3
:10F3A0003197F1F70196883C9105C1F78091C00033
:10F3B00087FFEFCF15B8D9C08FEF87B90DC088B1DF
:10F3C000809588B980E090E0E0EDF7E03197F1F7C3
:10F3D0000196883C9105C1F78091C00087FFEFCF6F
:10F3E00018B8C3C08FEF8AB90DC08BB180958BB9A7
:10F3F00080E090E0E0EDF7E03197F1F70196883C8E
:10F400009105C1F78091C00087FFEFCF1BB8ADC059
:10F410008FEF8DB90DC08EB180958EB980E090E0F0
:10F42000E0EDF7E03197F1F70196883C9105C1F7DF
:10F430008091C00087FFEFCF1EB897C08FEF80BBD1
:10F440000DC081B3809581BB80E090E0E0EDF7E0F6
:10F450003197F1F70196883C9105C1F78091C00082
:10F4600087FFEFCF11BA81C08FEF83BB0DC084B38C
:10F47000809584BB80E090E0E0EDF7E03197F1F714
:10F480000196883C9105C1F78091C00087FFEFCFBE
:10F4900014BA6BC08FEF809301010FC080910201FD
:10F4A00080958093020180E090E0E0EDF7E03197F5
:10F4B000F1F70196883C9105C1F78091C00087FF64
:10F4C000EDCF1092020151C08FEF809304010FC065
:10F4D0008091050180958093050180E090E0E0ED4A
:10F4E000F7E03197F1F70196883C9105C1F78091DB
:10F4F000C00087FFEDCF1092050137C08FEF8093DA
:10F5000007010FC08091080180958093080180E079
:10F5100090E0E0EDF7E03197F1F70196883C910536
:10F52000C1F78091C00087FFEDCF109208011DC088
:10F530008FEF80930A010FC080910B01809580931B
:10F540000B0180E090E0E0EDF7E03197F1F70196F4
:10F55000883C9105C1F78091C00087FFEDCF1092E4
:10F560000B0103C085E292EEEEC98091C00087FFD7
:10F57000FCCF8091C600EAC988E392EEE4C98CE131
:10F5800091EEE1C988249924933011F1943028F444
:10F59000913089F09230B8F408C0953061F195301F
:10F5A000F0F0963009F048C043C02B3109F042C951
:10F5B00091E06BE13FC96227C15DDE4F2883CF52E6
:10F5C000D14092E037C9B22FA0E0622793E032C960
:10F5D000822F90E0A82BB92B622794E02BC92E3004
:10F5E00009F039C3622795E0C05DDE4F19821882A9
:10F5F000C053D1401FC9E1E0F0E0EC0FFD1FC05D3A
:10F60000DE4F08811981C053D140E00FF11F2083E4
:10F610000F5F1F4FC05DDE4F19830883C053D14079
:10F6200062270A171B0709F005C9D80196E002C92D
:10F63000261709F010C303C0973009F0FBC87724E0
:10F640009981933109F412C19431C8F4963009F4C8
:10F65000D8C0973050F4923009F406C1933009F4C1
:10F660006DC0913009F059C253C0913109F477C08F
:10F67000923108F0BBC0903109F04FC2F5C098310B
:10F6800009F487C0993150F4953109F4EFC09531F0
:10F6900008F4C6C1963109F040C2C2C19A3109F4DA
:10F6A0006CC09A3108F491C09B3109F45BC09D3164
:10F6B00009F033C29D81903359F48F81882311F46E
:10F6C0009EE11CC0813011F091E018C098E916C08D
:10F6D000892F807591F0903539F4E0E0F0E089E011
:10F6E0008093570094910AC0983539F4E3E0F0E034
:10F6F00089E080935700949101C090E01A821B82A8
:10F700008D818C831D829E831F8227E030E009C299
:10F710001A8288E08B8381E48C8386E58D8382E581
:10F720008E8389E48F8383E5888780E589878FE5E9
:10F730008A8782E38B872BE030E0F3C18A818139AD
:10F7400041F0823941F0803911F48FE005C080E04A
:10F7500003C082E001C08AE01A828B8344C0772410
:10F76000739482C08D81882311F48EE12CC0813086
:10F7700011F081E028C088E926C01A82E1E0F0E0BB
:10F7800089E08093570084918B831C8224E030E0D1
:10F79000C8C18B81803589F48C81883039F4E2E0EE
:10F7A000F0E089E08093570084910DC0E0E0F0E044
:10F7B00089E080935700849106C0E3E0F0E089E09F
:10F7C0008093570084911A82DFCF8D81836C99E0FA
:10F7D000E1E0F0E0082E90935700E89507B600FCB2
:10F7E000FDCF1A821B8223E030E09BC180EC8A832C
:10F7F000CE5CDE4F188219821A821B82C253D1401E
:10F800008EC18A8190E0A0E0B0E0582F44273327D2
:10F8100022278B8190E0A0E0B0E0DC0199278827C7
:10F82000282B392B4A2B5B2B8D8190E0A0E0B0E098
:10F83000282B392B4A2B5B2B8C8190E0A0E0B0E089
:10F84000BA2FA92F982F8827282B392B4A2B5B2BCF
:10F85000220F331F441F551FC05EDE4F288339839C
:10F860004A835B83C052D1401A8259C13A81C95C34
:10F87000DE4F3883C753D140CA5CDE4F1882C6536F
:10F88000D1408B81C82EDD24CA5CDE4F488159816E
:10F89000C653D140C42AD52A933109F082C0CE5C28
:10F8A000DE4F88819981AA81BB81C253D1408050AB
:10F8B000904CA340B04030F583E0CE5CDE4FE88052
:10F8C000F9800A811B81C253D140F70100935B008C
:10F8D00080935700E89507B600FCFDCFCE5CDE4F65
:10F8E000088119812A813B81C253D14000501F4FAA
:10F8F0002F4F3F4FCE5CDE4F088319832A833B8313
:10F90000C253D140C05EDE4F488159816A817B81FC
:10F91000C052D140DE011B9631E08C9111962C91A2
:10F9200011971296C75CDE4F2883C953D140C85C3B
:10F93000DE4F1882C853D14090E0C85CDE4FE881AA
:10F94000F981C853D1408E2B9F2B0C01FA01609393
:10F950005B0030935700E89511244E5F5F4F6F4F67
:10F960007F4F0EEFE02E0FEFF02ECE0CDF1CC114F8
:10F97000D10499F685E0C05EDE4F088119812A81A5
:10F980003B81C052D140F80120935B008093570027
:10F99000E89507B600FCFDCF81E180935700E8951C
:10F9A00035C0C05EDE4F88819981AA81BB81C0527B
:10F9B000D140B695A795979587957C018601ABE0D8
:10F9C000AA2EB12CAC0EBD1E0BC0D5016D915D01F0
:10F9D000C7010F947FFE0894E11CF11C01501040F8
:10F9E0000115110591F7A60160E070E0440F551F65
:10F9F000661F771FC05EDE4FE880F9800A811B8199
:10FA0000C052D1404E0D5F1D601F711F1A82C05E33
:10FA1000DE4F488359836A837B83C052D1407FC0C5
:10FA2000FA80C55CDE4FF882CB53D140C65CDE4F16
:10FA30001882CA53D1408B81C82EDD24C65CDE4FAC
:10FA400008811981CA53D140C02AD12A1A828981DA
:10FA5000BE016D5F7F4F843121F59601C05EDE4FA0
:10FA6000E880F9800A811B81C052D1400BBFF701A9
:10FA700087919691DB018C9311969C936E5F7F4FDB
:10FA8000D801C7010296A11DB11DC05EDE4F88835B
:10FA90009983AA83BB83C052D14022503040F1F6F3
:10FAA00036C0C05EDE4F288139814A815B81C052F9
:10FAB000D1400894C108D108760100E010E0089414
:10FAC000C11CD11C0894E11CF11C011D111DE20E8A
:10FAD000F31E041F151F21BDBB27A52F942F832FB5
:10FAE00082BD2F5F3F4F4F4F5F4FF89A80B5DB01CC
:10FAF0008D93BD012E153F054007510761F7C05E8C
:10FB0000DE4F288339834A835B83C052D1409601FC
:10FB10002D5F3F4FFB01108204C080EC8A8322E0FE
:10FB200030E08BE18093C6008091C00086FFFCCF5F
:10FB30008091C00080648093C000C15DDE4FF88179
:10FB4000CF52D140F093C6008091C00086FFFCCF19
:10FB50008091C00080648093C000432F3093C60022
:10FB60008091C00086FFFCCF8091C00080648093AC
:10FB7000C000922F2093C6008091C00086FFFCCF6A
:10FB80008091C00080648093C0008EE08093C600A6
:10FB90008091C00086FFFCCF8091C000806480937C
:10FBA000C00065E1C15DDE4FE880CF52D1406E25D7
:10FBB00069276427FE01319610C090819093C6009A
:10FBC0008091C00086FFFCCF31968091C000806498
:10FBD0008093C0006927215030402115310569F715
:10FBE0006093C6008091C00086FFFCCF8091C0006A
:10FBF00080648093C00085B1805885B9772081F4F6
:10FC0000C15DDE4F0881CF52D1400F5FC15DDE4F35
:10FC10000883CF52D14090E0A0E0B0E00D941AF4F8
:10FC200027982F9880E090E020ED37E0F901319798
:10FC3000F1F7019684369105C9F700008091C00064
:10FC40008D7F8093C00081E180935700E895EE2777
:10FC5000FF270994FFCF90E00D941AF497FB092E2B
:10FC600007260AD077FD04D02ED006D000201AF443
:10FC7000709561957F4F0895F6F7909581959F4F08
:10FC80000895A1E21A2EAA1BBB1BFD010DC0AA1FDD
:10FC9000BB1FEE1FFF1FA217B307E407F50720F0F5
:10FCA000A21BB30BE40BF50B661F771F881F991F70
:10FCB0001A9469F760957095809590959B01AC01B9
:10FCC000BD01CF010895AA1BBB1B51E107C0AA1FAC
:10FCD000BB1FA617B70710F0A61BB70B881F991FED
:10FCE0005A95A9F780959095BC01CD010895F99991
:10FCF000FECF92BD81BDF89A992780B50895262F31
:10FD0000F999FECF1FBA92BD81BD20BD0FB6F89400
:0EFD1000FA9AF99A0FBE01960895F894FFCF63
:00000001FF
