:100000000C942C010C945D010C945D010C945D0129
:100010000C945D010C945D010C945D010C945D01E8
:100020000C945D010C9400080C9400080C940008DA
:100030000C945D010C945D010C945D010C945D01C8
:100040000C945D010C945D010C945D010C945D01B8
:100050000C945D010C945D010C945D010C94F6060A
:100060000C945D010C945D010C945D010C945D0198
:100070000C945D010C945D010C945D010C945D0188
:100080000C945D010C945D010C945D010C945D0178
:100090000C945D010C945D010C945D010C945D0168
:1000A0000C945D010C945D010C945D010C945D0158
:1000B0000C945D010C945D010C945D010C945D0148
:1000C0000C945D010C945D010C945D010C94CA07C5
:1000D0000C94A0070C945D010C946A070C944007E3
:1000E0000C945D010C94B2010C94F4060C94D701AD
:1000F0000C94A1030C94BF010C94DB010C946708D1
:100100000C94F3060C94E5010C9493030C944303B4
:100110000C94BB010C94D3010C9470030C947F03DA
:100120000C94AA010C94C5010C94C9010C94E10132
:100130000C94A6010C94AE010C9494010C94300420
:100140000C94E3030C94B5010C94CD010C948F0135
:1001500000000A0B02090C0D0E0807030401000041
:10016000000000000000000000000000000000008F
:10017000000000000000000000000000121110004C
:10018000000000000000000000000000000000006F
:1001900000000000000000002200250028002B00C5
:1001A0002E003100340002010000050108010B019E
:1001B00000002100240027002A002D003000330019
:1001C00001010000040107010A01050505050705F5
:1001D00008080808020202020A0A080804040404C3
:1001E00001010101010101010303030303030303EF
:1001F000040707070C0C0C0C0C0C0C0C020202027E
:1002000006060606060606060B0B0B0B0B0B0B0B66
:100210000102102020080810204010204080020118
:1002200002010804020101020408102040808040FD
:1002300020100804020180040201804020100804FC
:10024000020108040201010204081020408001029A
:10025000040810204080670811241FBECFEFD1E2B0
:10026000DEBFCDBF00E00CBF12E0A0E0B2E0E2EBE9
:10027000F5E100E00BBF02C007900D92A032B1077C
:10028000D9F72DE0A0E2B2E001C01D92A33BB20776
:10029000E1F711E0CCE2D1E000E006C021970109CE
:1002A000802FFE010E94AA09CB32D10780E0080707
:1002B000A9F70E9400090C94D70A0C940000282F7B
:1002C00030E0F901E05BFE4F9491F901E05FFD4FF2
:1002D000449126533E4FF9012491222309F435C05D
:1002E000992311F191509231F8F4E92FF0E0882729
:1002F000E358FE4F8F4F0C94AA09AE01B2018F0153
:10030000A601AA019401B501BB01BF01C501C90144
:10031000CD01D301D7019401DB01E101E501809119
:1003200080008F7780938000E22FF0E0EE0FFF1FB8
:10033000EA56FE4FA591B4918FB7F894EC916111F4
:1003400048C040954E234C938FBF08958091800004
:100350008F7DE8CF80918000877FE4CF84B58F7751
:1003600084BDE2CF84B58F7DFBCF8091B0008F77C5
:100370008093B000D9CF8091B0008F7DF9CF80916C
:1003800090008F7780939000CFCF809190008F7DE9
:10039000F9CF80919000877FF5CF8091A0008F7773
:1003A0008093A000C1CF8091A0008F7DF9CF809174
:1003B000A000877FF5CF809120018F778093200167
:1003C000B3CF809120018F7DF9CF80912001877F6D
:1003D000F5CF4E2BB8CFCF93DF93EC018E819F8169
:1003E0009927FC01E05FFD4F249186539E4FFC014D
:1003F0008491882399F090E0880F991FFC01E055C3
:10040000FE4FA591B491FC01EA56FE4F859194915F
:100410008FB7F894EC91E22BEC938FBFEC81FD81C8
:100420008A819B81892B09F4E0C0138E128E118E74
:10043000108E178A168A82E490E0958F848F8485C7
:1004400096EF980F943048F02EEC280F243028F0C7
:1004500022EC280F283008F055C02FE030E0378B11
:10046000268B20E430E0318F208F27E230E0338F7D
:10047000228F943050F02EEC280F243030F022ECF4
:10048000280FB0E0A0E0283010F4A8E6B0E02C91EE
:10049000943028F032EC380F383008F489C031E05D
:1004A000232B943048F09EEC980F943028F08E5314
:1004B000B0E0A0E0883010F4A8E6B0E02C932485EA
:1004C00036EF320F343008F475C08EEC820F843072
:1004D00008F470C082EC820F883008F06EC08DE6A0
:1004E00090E0948B838B343008F06AC02650330B35
:1004F00081E001C0880F2A95EAF7858B848D958D60
:100500000197F1F7828D938D892B41F140912B0258
:1005100050912C024E175F0709F14115510569F002
:10052000DA0153962D913C91D9019C91DA015596AF
:100530008C9180958923D9018C93868D8E7F868FAF
:1005400010922A0210922902F0932C02E0932B02BF
:10055000A389B4898C919589892B8C9368858E8128
:100560000E945F01FE01E65FFA4F1182108234970C
:10057000118210827C9681E090E091838083729753
:1005800091838083329683E090E0918380833296DA
:1005900084E090E091838083329685E090E09183BF
:1005A0008083C85EDA4F99838883DF91CF91089565
:1005B00034E076CF8BE690E094CF90E080E091CF6E
:1005C00088E0223309F499CF84E0233309F495CFEE
:1005D00082E0243309F491CF82EC820F883018F442
:1005E0002E53330B85CF81E088CFA089B18982E07B
:1005F0008C93A089B1891C92A485B5851C92A6858F
:10060000B78580E18C93108EA489B58986E08C93A0
:10061000A289B3898C9180618C93A289B3898C91D2
:1006200088608C93A289B3898C9180688C930288AE
:10063000F389E02D80818F7D808390CF3FB7F89440
:100640008091250290912602A0912702B091280264
:1006500026B5A89B05C02F3F19F00196A11DB11D1D
:100660003FBFBA2FA92F982F8827BC01CD01620F59
:10067000711D811D911D42E0660F771F881F991F14
:100680004A95D1F70895AF92BF92CF92DF92EF9241
:10069000FF920F931F93CF93DF936C017B018B012C
:1006A000040F151FEB015E01AE18BF08C017D1077C
:1006B00059F06991D601ED91FC910190F081E02D06
:1006C000C6011995892B79F7C501DF91CF911F914B
:1006D0000F91FF90EF90DF90CF90BF90AF90089573
:1006E000FC01538D448D252F30E0842F90E0821B38
:1006F000930B541710F0CF96089501970895FC01BD
:10070000918D828D981761F0A28DAE0FBF2FB11D14
:100710005D968C91928D9F5F9F73928F90E008956C
:100720008FEF9FEF0895FC01918D828D981731F026
:10073000828DE80FF11D858D90E008958FEF9FEF7A
:100740000895FC01918D228D892F90E0805C9F4F50
:10075000821B91098F73992708958DE292E00E9480
:10076000A10321E0892B09F420E0822F08958EEE69
:1007700097E00E94A10321E0892B09F420E0822F59
:100780000895FC01A48DA80FB92FB11DA35ABF4F26
:100790002C91848D90E001968F739927848FA68980
:1007A000B7892C93A089B1898C91837080648C93D4
:1007B000938D848D981306C00288F389E02D808183
:1007C0008F7D80830895EF92FF920F931F93CF93B5
:1007D000DF93EC0181E0888F9B8D8C8D98131AC07C
:1007E000E889F989808185FF15C09FB7F894EE8963
:1007F000FF896083E889F9898081837080648083C0
:100800009FBF81E090E0DF91CF911F910F91FF900A
:10081000EF900895F62E0B8D10E00F5F1F4F0F73B2
:100820001127E02E8C8D8E110CC00FB607FCFACF6D
:10083000E889F989808185FFF5CFCE010E94C10347
:10084000F1CFEB8DEC0FFD2FF11DE35AFF4FF0823E
:100850009FB7F8940B8FEA89FB8980818062CFCFA4
:10086000CF93DF93EC01888D8823B9F0AA89BB89E7
:10087000E889F9898C9185FD03C0808186FD0DC0D2
:100880000FB607FCF7CF8C9185FFF2CF808185FFF3
:10089000EDCFCE010E94C103E9CFDF91CF91089542
:1008A00080E090E0892B49F080E090E0892B29F0EE
:1008B0000E94000081110E94000080E090E0892BDE
:1008C00049F080E090E0892B29F00E94000081111E
:1008D0000E94000080E090E0892B29F00E94B7037D
:1008E00081110E94000080E090E0892B29F00E9495
:1008F000AD0381110C9400000895CF93DF93EC01B8
:100900008C819D81DC01ED91FC910084F185E02DCD
:100910001995892B51F08C819D81DC01ED91FC9121
:100920000284F385E02D1995EBCFDF91CF910895E7
:100930002F923F924F925F926F927F928F929F92EF
:10094000AF92BF92CF92DF92EF92FF920F931F93DD
:10095000CF93DF93EC018C01065F1A4FD8011D92F3
:100960001C921C01BAEF2B1A3B0A81E090E0F101C6
:10097000918380837E01F8EFEF1AFAEFFF0AD70127
:100980001D921C928C819D81DC01ED91FC91008473
:10099000F185E02D19956C01892B51F08C819D8199
:1009A000DC01ED91FC910284F385E02D1995EACFED
:1009B0005E01B8EFAB1ABDEFBB0A8FEF90E0F50117
:1009C0009183808332969183808332969183808352
:1009D00032961182108285E090E0DE01A05FBD4F6B
:1009E00011969C938E9383EF90E0129611969C93B0
:1009F0008E93AC50BE4F8D919C911197A25FB140E8
:100A000011969C938E93AC50BE4F8D919C911197F3
:100A1000A25FB14011969C938E93AC50BE4F8D91C6
:100A20009C911197A25FB1408D939C939E01265E8D
:100A30003D4F90E080E041915191840F951FE21766
:100A4000F307C9F7809590959183808368858E819F
:100A50000E945F014E01F4EE8F1AFDEF9F0AD5014F
:100A60006C91B2E0AB0EB11C8C819D81DC01ED91EB
:100A7000FC910190F081E02D1995A814B90479F743
:100A80008C819D81DC01ED91FC910680F781E02D48
:100A9000199569858E810E945F0181E090E0F801DF
:100AA00091838083FE01E45FFA4F808191810297F8
:100AB0000CF461C0349680819181019709F052C095
:100AC00087E090E0D7018D939C9357E0C52ED12C01
:100AD000FE01EE5DFA4F80819181019721F50E9420
:100AE0001E032B013C0136E9832E912CA12CB12C45
:100AF0000E941E036419750986099709683E7340B0
:100B000081059105A8F3B1E08B1A9108A108B108FD
:100B1000E8EE4E0EE3E05E1E611C711C8114910430
:100B2000A104B10429F73E012AE0620E711CB12C28
:100B3000A12C912C812C8C819D81DC01ED91FC916B
:100B40000084F185E02D1995892B09F005C1BFEFCF
:100B50008B1A9B0AE2E48E16E6E09E0661F781E0BE
:100B600090E01CC18BE090E0F701918380834BE023
:100B7000C42ED12CADCFD7011D921C92F101118250
:100B80001082D7018D919C918C159D0589F0FE01F5
:100B9000EE5EFA4F0190F081E02DEC5FFE4FEE0F1C
:100BA000FF1FEC0FFD1F208131812E3F310591F495
:100BB000009781F4FE01EA5EFA4F208131812C5FBB
:100BC0003E4F220F331FC20FD31F28813981213F8F
:100BD000310539F082E090E0F8019183808381E073
:100BE00090E0DF91CF911F910F91FF90EF90DF90F8
:100BF000CF90BF90AF909F908F907F906F905F90BD
:100C00004F903F902F900895B4E0AB16B1040CF4D0
:100C1000E6C02A853B852F3F310551F48C859D85A3
:100C20008F3F910529F48E859F858F3F910589F02F
:100C3000D8018D919C91119780688D939C932F3F43
:100C4000310599F0F80180819181806891838083DA
:100C5000C1C0828593856817790751F0D8018D91BD
:100C60009C91119780688D939C9390E080E035C0B3
:100C7000DE01AC5EBA4F0D90BC91A02D1596AA0F67
:100C8000BB1FAD014C0F5D1FCE018A5E9A4FDC0188
:100C90008D919C919501281B390BC901DA012D9189
:100CA0003C9128173907D1F6DE01509690E080E09C
:100CB00023E030E04D915D91840F951F2F5F3F4FF2
:100CC000A216B306B9F78F3F910539F0D8012D91DF
:100CD0003C91119720682D933C932C853D852F3FA7
:100CE000310509F0AFCF2E853F852F3F310509F043
:100CF000A9CF228533856217730709F0A3CFFE01C0
:100D0000EC5EFA4F0190F081E02D3596EE0FFF1F5B
:100D1000EC0FFD1FDE01AA5EBA4F2D913C91A5019B
:100D2000421B530B9A01408151814217530709F02E
:100D300089CFFE01709623E030E041915191840FFC
:100D4000951F2F5F3F4FA216B306B9F799278F3F24
:100D5000910509F077CF43C08C819D81DC01ED9135
:100D6000FC910084F185E02D1995009749F08C8164
:100D70009D81DC01ED91FC910284F385E02D1995B4
:100D8000F301819391933F01FFEFAF1ABF0ACA1499
:100D9000DB0409F0CECE560190E080E0FE01EE5E6D
:100DA000FA4F0190F081E02DEE0FFF1FEC0FFD1FB9
:100DB000DF01A85FBD4F6D917C916E3F710579F0A9
:100DC000892B09F421CFD8018D919C9111978064D2
:100DD0008D939C93CE010E947D04B12CA12CD70150
:100DE000AD92BC92CBCE08950C944E0A1F920F92F6
:100DF0000FB60F9211242F933F938F939F93AF932E
:100E0000BF938091210290912202A0912302B09180
:100E100024023091200223E0230F2D3758F501964C
:100E2000A11DB11D209320028093210290932202E4
:100E3000A0932302B0932402809125029091260270
:100E4000A0912702B09128020196A11DB11D8093A7
:100E5000250290932602A0932702B0932802BF9107
:100E6000AF919F918F913F912F910F900FBE0F9057
:100E70001F90189526E8230F0296A11DB11DD2CF11
:100E80001F920F920FB60F9211240BB60F922F9351
:100E90003F934F935F936F937F938F939F93AF9302
:100EA000BF93EF93FF938DE292E00E94C103FF9105
:100EB000EF91BF91AF919F918F917F916F915F91D2
:100EC0004F913F912F910F900BBE0F900FBE0F903F
:100ED0001F9018951F920F920FB60F9211240BB608
:100EE0000F922F938F939F93EF93FF93E0913D0287
:100EF000F0913E028081E0914302F091440282FD34
:100F00001DC09081809146028F5F8F7320914702B0
:100F1000821741F0E0914602F0E0E35DFD4F958FCE
:100F200080934602FF91EF919F918F912F910F90A7
:100F30000BBE0F900FBE0F901F9018958081F2CFBF
:100F40001F920F920FB60F9211240BB60F922F9390
:100F50003F934F935F936F937F938F939F93AF9341
:100F6000BF93EF93FF938EEE97E00E94C103FF9132
:100F7000EF91BF91AF919F918F917F916F915F9111
:100F80004F913F912F910F900BBE0F900FBE0F907E
:100F90001F9018951F920F920FB60F9211240BB647
:100FA0000F922F938F939F93EF93FF93E091FE0700
:100FB000F091FF078081E0910408F091050882FD1F
:100FC0001DC09081809107088F5F8F732091080862
:100FD000821741F0E0910708F0E0E251F84F958F59
:100FE00080930708FF91EF919F918F912F910F9020
:100FF0000BBE0F900FBE0F901F9018958081F2CFFF
:101000001F920F920FB60F9211240BB60F922F93CF
:101010003F938F939F93AF93BF93CF93DF93EF93C0
:10102000FF93E0912B02F0912C02309749F0A685B6
:10103000B7859585868D81FF14C08C918923A1F495
:10104000FF91EF91DF91CF91BF91AF919F918F91E0
:101050003F912F910F900BBE0F900FBE0F901F90DE
:1010600018958C91892361F7A389B4899C9185890E
:10107000809589238C93868997890197F1F7208D34
:10108000318DC685D78588E0D9011197F1F7988110
:101090008150D1F780912A0290E001968F739927B1
:1010A00020912902281779F090912A0280932A0230
:1010B000828D938D0197F1F7A389B4898C919589DD
:1010C000892B8C93BDCF868D8160868FF1CFCF9396
:1010D000DF93EDE2F2E01382128248EE53E060E02B
:1010E00070E044835583668377838AE092E091833E
:1010F000808325E331E03587248724E331E0378797
:10110000268720E331E0318B208B21E331E0338BE4
:10111000228B22E331E0358B248B26E331E0378BC1
:10112000268B118E128E138E148EAEEEB7E01396B0
:101130001C921E92129714964D935D936D937C931F
:10114000179711969C938E9385ED90E01D969C9336
:101150008E931C9784ED90E01F969C938E931E9720
:1011600080ED90E051969C938E93509781ED90E0A6
:1011700053969C938E93529782ED90E055969C9354
:101180008E93549786ED90E057969C938E93569746
:1011900059961C9259975A961C925A975B961C9294
:1011A0005B975C961C925C97CBE8D8E02CE132E030
:1011B000398328831B821A82BD83AC8382E090E04E
:1011C0009F838E8381E088871986AAECB2E011960E
:1011D0003C932E9313961C921E9212971596FC9395
:1011E000EE93149723E030E017963C932E931697D6
:1011F00018968C93189719961C92DF91CF910895A9
:10120000789484B5826084BD84B5816084BD85B5E1
:10121000826085BD85B5816085BD80916E008160ED
:1012200080936E0010928100809181008260809393
:101230008100809181008160809381008091800095
:101240008160809380008091B10084608093B100C0
:101250008091B00081608093B000809191008260A5
:1012600080939100809191008160809391008091A2
:1012700090008160809390008091A10082608093B3
:10128000A1008091A10081608093A1008091A000C5
:1012900081608093A0008091210182608093210170
:1012A00080912101816080932101809120018160E2
:1012B0008093200180917A00846080937A008091ED
:1012C0007A00826080937A0080917A0081608093B6
:1012D0007A0080917A00806880937A001092C10031
:1012E0008BE898E00E94EB018AEC92E00E94EB010F
:1012F00086E8E82EF12C04EC10E0C9E0D0E08AEC9E
:1013000092E00E947D04F092D106E092D006109304
:10131000D3060093D206D093D506C093D4068AECA8
:1013200092E00E9498048BE898E00E947D04F0927D
:10133000920CE092910C1093940C0093930CD09328
:10134000960CC093950C8BE898E00E9498040E943C
:101350005004D5CFEE0FFF1F881F8BBF0790F6916B
:10136000E02D19940F931F93CF93DF938230910553
:1013700010F482E090E0E091B10DF091B20D30E018
:1013800020E0B0E0A0E0309799F42115310509F490
:101390004AC0281B390B24303105D8F58A819B813E
:1013A0006115710589F1FB0193838283FE0111C0F0
:1013B000408151810281138148175907E0F0481795
:1013C000590799F4109761F012960C93129713969F
:1013D0001C933296CF01DF91CF911F910F91089509
:1013E0000093B10D1093B20DF4CF2115310551F0DA
:1013F0004217530738F0A901DB019A01BD01DF0153
:10140000F801C1CFEF01F9CF9093B20D8093B10DE8
:10141000CDCFFE01E20FF31F81939193225031094A
:1014200039832883D7CF2091AF0D3091B00D232B76
:1014300041F420910202309103023093B00D2093C9
:10144000AF0D20910002309101022115310541F4C8
:101450002DB73EB74091040250910502241B350B75
:10146000E091AF0DF091B00DE217F307A0F42E1B41
:101470003F0B2817390778F0AC014E5F5F4F2417F8
:10148000350748F04E0F5F1F5093B00D4093AF0DDE
:10149000819391939FCFF0E0E0E09CCFCF93DF93D7
:1014A0000097E9F0FC01329713821282A091B10DEE
:1014B000B091B20DED0130E020E01097A1F4208151
:1014C0003181820F931F2091AF0D3091B00D2817FD
:1014D000390709F061C0F093B00DE093AF0DDF91D3
:1014E000CF910895EA01CE17DF07E8F54A815B81C5
:1014F0009E0141155105B1F7E901FB83EA8349914A
:101500005991C40FD51FEC17FD0761F480819181BB
:101510000296840F951FE9019983888382819381C4
:101520009B838A83F0E0E0E012968D919C91139763
:101530000097B9F52D913C911197CD010296820F3C
:10154000931F2091AF0D3091B00D2817390739F650
:10155000309751F51092B20D1092B10DB093B00DBD
:10156000A093AF0DBCCFD383C28340815181840F40
:10157000951FC817D90761F44E5F5F4F8881998125
:10158000480F591F518340838A819B8193838283B3
:101590002115310509F0B0CFF093B20DE093B10DF4
:1015A0009ECFFD01DC01C0CF13821282D7CFF89409
:0215B000FFCF6B
:1015B2000000B30D800000000000E303430370034A
:1015C2003004A1037F03930300000000F306F40636
:00000001FF
