:100000000C942D010C945E010C945E010C945E0125
:100010000C945E010C945E010C945E010C945E01E4
:100020000C945E010C945E010C945E010C945E01D4
:100030000C945E010C945E010C945E010C945E01C4
:100040000C945E010C945E010C945E010C945E01B4
:100050000C945E010C945E010C945E010C9481087A
:100060000C945E010C94F5080C94CB080C945E0182
:100070000C945E010C945E010C945E010C945E0184
:100080000C945E010C945E010C945E010C945E0174
:100090000C945E010C945E010C945E010C942B098F
:1000A0000C945E010C945E010C945E010C945E0154
:1000B0000C945E010C945E010C945E010C945E0144
:1000C0000C945E010C945E010C945E010C945E0134
:1000D0000C945E010C945E010C945E010C945E0124
:1000E0000C945E010C94CE010C94B6010C94AF01FB
:1000F0000C94A7010C94F6020C94E6010C944F0AA0
:100100000C94C6010C9494040C94CA010C94E20162
:100110000C9440020C9495040C944F020C94AB0187
:100120000C9411020C94B7040C94BE040C9471024C
:100130000C94B3010C94EB040C9463020C941A0518
:100140000C94C0010C9495010C9412020C94DC01E7
:100150000C9490010C94A4040C94D4010C94D80138
:100160000C94BC010C9413020C94A9020000220010
:10017000250028002B002E00310034000201000071
:10018000050108010B010505050507050808080814
:10019000020202020A0A080804040404010101011F
:1001A000010101010303030303030303040707071A
:1001B0000C0C0C0C0C0C0C0C0202020206060606BF
:1001C000060606060B0B0B0B0B0B0B0B010210208C
:1001D000200808102040102040800201020108047D
:1001E0000201010204081020408080402010080411
:1001F000020180040201804020100804020108046A
:1002000002010102040810204080010204081020AD
:10021000408000000A0B02090C0D0E0807030401C0
:1002200000000000000000000000000000000000CE
:10023000000000000000000000000000000012119B
:10024000100000000000000000000000000000009E
:1002500000000000000000004F0A11241FBECFEF75
:10026000D1E2DEBFCDBF00E00CBF12E0A0E0B2E003
:10027000E0E6F9E100E00BBF02C007900D92A43266
:10028000B107D9F723E0A4E2B2E001C01D92A03982
:10029000B207E1F711E0CDE2D1E000E006C021971E
:1002A0000109802FFE010E94A60CCC32D10780E00C
:1002B0000807A9F70E94880A0C94AE0C0C94000061
:1002C000282F30E0F901EE5EFD4F9491F901E453DF
:1002D000FE4F44912A573E4FF9012491222309F4FD
:1002E00035C0992311F191509231F8F4E92FF0E0E3
:1002F0008827E258FE4F8F4F0C94A60CAF01B30134
:100300009001A701AB019501B601BC01C001C60176
:10031000CA01CE01D401D8019501DC01E201E60158
:10032000809180008F7780938000E22FF0E0EE0FC5
:10033000FF1FE459FE4FA591B4918FB7F894EC914B
:10034000611148C040954E234C938FBF0895809112
:1003500080008F7DE8CF80918000877FE4CF84B5D7
:100360008F7784BDE2CF84B58F7DFBCF8091B000C5
:100370008F778093B000D9CF8091B0008F7DF9CF77
:10038000809190008F7780939000CFCF80919000E4
:100390008F7DF9CF80919000877FF5CF8091A0006D
:1003A0008F778093A000C1CF8091A0008F7DF9CF7F
:1003B0008091A000877FF5CF809120018F77809377
:1003C0002001B3CF809120018F7DF9CF8091200152
:1003D000877FF5CF4E2BB8CF3FB7F894809193022B
:1003E00090919402A0919502B091960226B5A89B97
:1003F00005C02F3F19F00196A11DB11D3FBFBA2FB7
:10040000A92F982F8827BC01CD01620F711D811D76
:10041000911D42E0660F771F881F991F4A95D1F7FB
:10042000089508950895AF92BF92CF92DF92EF9210
:10043000FF920F931F93CF93DF936C017B018B018E
:10044000040F151FEB015E01AE18BF08C017D107DE
:1004500059F06991D601ED91FC910190F081E02D68
:10046000C6011995892B79F7C501DF91CF911F91AD
:100470000F91FF90EF90DF90CF90BF90AF900895D5
:10048000FC01538D448D252F30E0842F90E0821B9A
:10049000930B541710F0CF96089501970895FC011F
:1004A000918D828D981761F0A28DAE0FBF2FB11D77
:1004B0005D968C91928D9F5F9F73928F90E00895CF
:1004C0008FEF9FEF0895FC01918D828D981731F089
:1004D000828DE80FF11D858D90E008958FEF9FEFDD
:1004E0000895FC01918D228D892F90E0805C9F4FB3
:1004F000821B91098F739927089587EE92E00E94DD
:10050000710221E0892B09F420E0822F0895FC017B
:10051000A48DA80FB92FB11DA35ABF4F2C91848D64
:1005200090E001968F739927848FA689B7892C93C1
:10053000A089B1898C91837080648C93938D848D14
:10054000981306C00288F389E02D80818F7D808317
:100550000895EF92FF920F931F93CF93DF93EC01D7
:1005600081E0888F9B8D8C8D98131AC0E889F9895A
:10057000808185FF15C09FB7F894EE89FF8960835D
:10058000E889F98980818370806480839FBF81E0DE
:1005900090E0DF91CF911F910F91FF90EF90089520
:1005A000F62E0B8D10E00F5F1F4F0F731127E02EFB
:1005B0008C8D8E110CC00FB607FCFACFE889F98933
:1005C000808185FFF5CFCE010E948702F1CFEB8DB0
:1005D000EC0FFD2FF11DE35AFF4FF0829FB7F89407
:1005E0000B8FEA89FB8980818062CFCFCF93DF9325
:1005F000EC01888D8823B9F0AA89BB89E889F9893B
:100600008C9185FD03C0808186FD0DC00FB607FC6F
:10061000F7CF8C9185FFF2CF808185FFEDCFCE01A2
:100620000E948702E9CFDF91CF91089580E090E0AA
:10063000892B29F00E947D0281110E94000080E038
:1006400090E0892B49F080E090E0892B29F00E940E
:10065000000081110E94000080E090E0892B49F0A9
:1006600080E090E0892B29F00E94000081110E9417
:10067000000080E090E0892B49F080E090E0892B39
:1006800029F00E94000081110C940000089520912F
:100690006502260F3327331F21323105ECF42091F8
:1006A000BD02FC0190E080E0243069F082E0089512
:1006B000A09165022191AC014B5B5D4FA40FB52F5A
:1006C000B11D2C930196861798F380916502680FEF
:1006D0006093650280E0089581E008951092BD0264
:1006E00081E08093BC021092970261E084E10E9455
:1006F000600161E085E10E946001E9EBF0E080814A
:100700008E7F808380818D7F808388E48093B80092
:1007100085E48093BC000895CF93DF9391E090939C
:1007200044028823B9F0C091B800D091BA008091FA
:10073000BC008A7B8093BC0060E084E10E94600181
:1007400060E085E10E9460010E946E03D093BA00D0
:10075000C093B800DF91CF910895CF92DF92EF92CE
:10076000FF920F931F93CF93DF93D091E60281E026
:10077000D13208F09CC0C091E5020E94EC016B01EF
:100780007C018091BD0281116CC082E08093BD022A
:1007900081E08093BC028FEF8093BB021092BA027B
:1007A000D093B902A5ECB2E0E9E9F2E080E0D81319
:1007B0008DC01092980280919802CC0FC82BC093E4
:1007C000980280919702813009F084C010929702BC
:1007D0000E94EC016B017C01809198028093BB0028
:1007E0008091BF029091C002A091C102B091C2025B
:1007F000892B8A2B8B2BA1F00E94EC010091BF0268
:100800001091C0022091C1023091C2026C197D0981
:100810008E099F09061717072807390708F442C0F1
:100820008091BC0083FDD8CF85EC8093BC000E94F2
:10083000EC016B017C018091BD02823009F44CC057
:100840008091BB028F3F09F469C08091BB02803266
:1008500009F466C08091BB02803309F463C084E070
:1008600026C08091BF029091C002A091C102B091B8
:10087000C202892B8A2B8B2B09F483CF0E94EC01B7
:100880000091BF021091C0022091C1023091C202BA
:100890006C197D098E099F09061717072807390764
:1008A00008F06FCF8091BE020E948C0385E0109209
:1008B000C4021092E6021092C302DF91CF911F9101
:1008C0000F91FF90EF90DF90CF9008959D919193BD
:1008D0008F5F6DCF85EEA9CF8091BF029091C0024E
:1008E000A091C102B091C202892B8A2B8B2B09F4F3
:1008F000A2CF0E94EC010091BF021091C002209192
:10090000C1023091C2026C197D098E099F09061738
:1009100017072807390708F08ECFC4CF80E0C7CF6C
:1009200082E0C5CF83E0C3CF0895E0918D0280912E
:100930008C02E81730F4F0E0EC5DFD4F808190E030
:1009400008958FEF9FEF089590918D0280918C0212
:100950002FEF3FEF981748F4E92FF0E0EC5DFD4FE3
:10096000208130E09F5F90938D02C90108958091AE
:100970008C0290918D02891B990B0895CF92DF9282
:10098000EF92FF920F931F93CF93DF937C01CB01E4
:100990008A012091C302222389F0EB016B01C40E6E
:1009A000D51ECC15DD0569F06991D701ED91FC915B
:1009B0000190F081E02DC7011995F3CF642F0E94BB
:1009C0004703C801DF91CF911F910F91FF90EF90E6
:1009D000DF90CF900895CF93DF931F92CDB7DEB70E
:1009E00069832091C3022223F9F02091E60220328C
:1009F00058F021E030E0FC013383228390E080E076
:100A00000F90DF91CF9108958091C402E82FF0E01C
:100A1000EB53FD4F998190838F5F8093C402809345
:100A2000E60281E090E0ECCF61E0CE0101960E9409
:100A30004703F7CF90E080E008958F929F92AF92A6
:100A4000BF92CF92DF92EF92FF92CF93DF93EC01B0
:100A50004A015B01C880D980EA80FB80AB01940128
:100A6000C701B6010E94A10C18167CF488829982F5
:100A7000AA82BB82DF91CF91FF90EF90DF90CF9061
:100A8000BF90AF909F908F90089520E030E0A90133
:100A9000C701B6010E94B50B87FFECCF18821982FF
:100AA0001A821B82E7CFCF92DF92EF92FF920F93D1
:100AB0001F93CF93DF93CDB7DEB760970FB6F8944F
:100AC000DEBF0FBECDBF69877A878B879C872D8756
:100AD0003E874F87588B1D821E821F8218867E019B
:100AE00085E0E80EF11C41E358E864ED72E4C701CB
:100AF0000E941D0545E85BEE62E572E4CE010996B1
:100B00000E941D0540E050E064E372E4CE010D96C2
:100B10000E941D0581E08093C3028093E50210923C
:100B2000C4021092E60221E338E844ED52E46D81FC
:100B30007E818F8198850E94BA0B69837A838B832B
:100B40009C838E010F5F1F4F6801F60161916F0159
:100B500084E893E00E94EB04CE14DF04B1F725E8AB
:100B60003BEE42E552E469857A858B859C850E943F
:100B7000BA0B69837A838B839C837801F701619137
:100B80007F0184E893E00E94EB04EC14FD04B1F7CC
:100B900020E030E044E352E46D857E858F859889BE
:100BA0000E94BA0B69837A838B839C83F8016191DD
:100BB0008F0184E893E00E94EB040E151F05B1F746
:100BC0000E94AD0360960FB6F894DEBF0FBECDBF96
:100BD000DF91CF911F910F91FF90EF90DF90CF9019
:100BE0000895AF92BF92CF92DF92EF92FF920F9350
:100BF0001F93CF93DF93CDB7DEB764970FB6F8940A
:100C0000DEBF0FBECDBF6D837E838F83988729871C
:100C10003A874B875C87ED86FE860F87188BA98AFB
:100C2000BA8ACB8ADC8A7E0185E0E80EF11C43E3B8
:100C300053E368E872E4C7010E941D054AE959E1DF
:100C400062E972E4CE0109960E941D0546EF58E262
:100C500063E972E4CE010D960E941D0548EB5EE14A
:100C600060E972E4CE0141960E941D0581E0809307
:100C7000C30284E08093E5021092C4021092E6025F
:100C800023E333E348E852E46D817E818F819885C8
:100C90000E94BA0B69837A838B839C838E010F5FDA
:100CA0001F4F6801F60161916F0184E893E00E9493
:100CB000EB04CE14DF04B1F72AE939E142E952E44A
:100CC00069857A858B859C850E94BA0B69837A83B6
:100CD0008B839C837801F70161917F0184E893E025
:100CE0000E94EB04EC14FD04B1F726EF38E243E96F
:100CF00052E46D857E858F8598890E94BA0B698341
:100D00007A838B839C836801F60161916F0184E88B
:100D100093E00E94EB04CE14DF04B1F728EB3EE130
:100D200040E952E469897A898B899C890E94BA0BCF
:100D300069837A838B839C83F80161918F0184E8B6
:100D400093E00E94EB040E151F05B1F70E94AD035E
:100D500064960FB6F894DEBF0FBECDBFDF91CF9182
:100D60001F910F91FF90EF90DF90CF90BF90AF90C9
:100D70000895AF92BF92CF92DF92EF92FF920F93BE
:100D80001F93CF93DF93CDB7DEB764970FB6F89478
:100D9000DEBF0FBECDBF6D837E838F83988729878B
:100DA0003A874B875C87ED86FE860F87188BA98A6A
:100DB000BA8ACB8ADC8A7E0185E0E80EF11C46EF18
:100DC00058E266E972E4C7010E941D0544EA50EF4B
:100DD00062E972E4CE0109960E941D0549E25CEDCC
:100DE00061E972E4CE010D960E941D054BE754E1C6
:100DF00060E972E4CE0141960E941D0581E0809376
:100E0000C30283E08093E5021092C4021092E602CE
:100E100026EF38E246E952E46D817E818F81988524
:100E20000E94BA0B69837A838B839C838E010F5F48
:100E30001F4F6801F60161916F0184E893E00E9401
:100E4000EB04CE14DF04B1F724EA30EF42E952E4B8
:100E500069857A858B859C850E94BA0B69837A8324
:100E60008B839C837801F70161917F0184E893E093
:100E70000E94EB04EC14FD04B1F729E23CED41E9DA
:100E800052E46D857E858F8598890E94BA0B6983AF
:100E90007A838B839C836801F60161916F0184E8FA
:100EA00093E00E94EB04CE14DF04B1F72BE734E1AA
:100EB00040E952E469897A898B899C890E94BA0B3E
:100EC00069837A838B839C83F80161918F0184E825
:100ED00093E00E94EB040E151F05B1F70E94AD03CD
:100EE00064960FB6F894DEBF0FBECDBFDF91CF91F1
:100EF0001F910F91FF90EF90DF90CF90BF90AF9038
:100F00000895AF92BF92CF92DF92EF92FF920F932C
:100F10001F93CF93DF93CDB7DEB764970FB6F894E6
:100F2000DEBF0FBECDBF6D837E838F8398872987F9
:100F30003A874B875C87ED86FE860F87188BA98AD8
:100F4000BA8ACB8ADC8A7E0185E0E80EF11C4EEA83
:100F500057E46EEC72E4C7010E941D0549E25CEDA6
:100F60006BEC72E4CE0109960E941D0547ED53E239
:100F700069EC72E4CE010D960E941D0548E451EE25
:100F800065EC72E4CE0141960E941D0581E08093DC
:100F9000C30282E08093E5021092C4021092E6023E
:100FA0002EEA37E44EEC52E46D817E818F81988584
:100FB0000E94BA0B69837A838B839C838E010F5FB7
:100FC0001F4F6801F60161916F0184E893E00E9470
:100FD000EB04CE14DF04B1F729E23CED4BEC52E414
:100FE00069857A858B859C850E94BA0B69837A8393
:100FF0008B839C837801F70161917F0184E893E002
:101000000E94EB04EC14FD04B1F727ED33E249EC48
:1010100052E46D857E858F8598890E94BA0B69831D
:101020007A838B839C836801F60161916F0184E868
:1010300093E00E94EB04CE14DF04B1F728E431EE14
:1010400045EC52E469897A898B899C890E94BA0BA4
:1010500069837A838B839C83F80161918F0184E893
:1010600093E00E94EB040E151F05B1F70E94AD033B
:1010700064960FB6F894DEBF0FBECDBFDF91CF915F
:101080001F910F91FF90EF90DF90CF90BF90AF90A6
:10109000089585ED8093BC008091BF029091C002BD
:1010A000A091C102B091C2020796A11DB11D23E01B
:1010B000B695A795979587952A95D1F72091BC006D
:1010C00024FD03C01092BD0208954091BF025091CB
:1010D000C0026091C1027091C202452B462B472B82
:1010E00069F30097A105B10541F02AE22A95F1F7CD
:1010F00000C00197A109B109E1CF8091BE020C9413
:101100008C031F920F920FB60F9211242F933F93CF
:101110008F939F93AF93BF9380918F029091900292
:10112000A0919102B091920230918E0223E0230FA0
:101130002D3758F50196A11DB11D20938E02809385
:101140008F0290939002A0939102B09392028091AB
:10115000930290919402A0919502B091960201960B
:10116000A11DB11D8093930290939402A0939502C8
:10117000B0939602BF91AF919F918F913F912F9124
:101180000F900FBE0F901F90189526E8230F029620
:10119000A11DB11DD2CF1F920F920FB60F92112435
:1011A0000BB60F922F933F934F935F936F937F9361
:1011B0008F939F93AF93BF93EF93FF9387EE92E04C
:1011C0000E948702FF91EF91BF91AF919F918F9104
:1011D0007F916F915F914F913F912F910F900BBE37
:1011E0000F900FBE0F901F9018951F920F920FB681
:1011F0000F9211240BB60F922F938F939F93EF931F
:10120000FF93E091F702F091F8028081E091FD02F6
:10121000F091FE0282FD1DC09081809100038F5FDE
:101220008F7320910103821741F0E0910003F0E0F9
:10123000E951FD4F958F80930003FF91EF919F91AE
:101240008F912F910F900BBE0F900FBE0F901F909C
:1012500018958081F2CF1F920F920FB60F92112432
:101260000BB60F922F933F934F935F936F937F93A0
:101270008F939F93AF93BF93EF93FF938091B900A8
:10128000887F803609F44DC008F040C0883209F4E8
:10129000A9C028F5803109F49DC0C8F4882309F459
:1012A000FBC0883009F496C0FF91EF91BF91AF91D8
:1012B0009F918F917F916F915F914F913F912F916E
:1012C0000F900BBE0F900FBE0F901F901895883196
:1012D00009F488C0803241F78093BB0214C0803487
:1012E00009F49DC040F48033B9F38833E9F6809364
:1012F000BB0285ECB0C0803509F485C0883509F49F
:1013000096C0883489F60E944908CECF883909F4FE
:101310008CC038F5883729F050F4883611F08037C2
:1013200019F683E08093BD021092870257C0883877
:1013300009F47BC0803919F0803809F0B5CF80916D
:101340008702803208F071C0E091870281E08E0F41
:10135000809387028091BB00F0E0E959FD4F8083C4
:101360003DC0803B39F0E0F4803A09F479C0883A16
:1013700009F09ACF84E08093BD0210926602109229
:101380006502E0918A02F0918B02199580916502C5
:1013900081110FC081E0809365021092450209C05F
:1013A000803C09F4A6CF883C09F4A3CF883B09F020
:1013B0007BCFE091660281E08E0F80936602F0E0C1
:1013C000EB5BFD4F80818093BB0090916602809122
:1013D000650229C0809198028093BB0085EC8093C0
:1013E000BC0062CF9091BA028091B902981758F56B
:1013F000E091BA0281E08E0F8093BA02F0E0E756E6
:10140000FD4F8081E9CFE091BA0281E08E0F809399
:10141000BA028091BB00F0E0E756FD4F80839091C7
:10142000BA028091B9029817C8F285E8D8CFE09146
:10143000BA0281E08E0F8093BA028091BB00F0E087
:10144000E756FD4F80838091BC0281115CCF81E023
:101450008093970284EA8093BC001092BD0224CF4F
:1014600085EC8093BC001092BD028091870280328F
:1014700030F4E0918702F0E0E959FD4F108260916D
:10148000870270E0E0918802F091890287E692E09D
:1014900019951092870208CF1092BB0234CFE7EE65
:1014A000F2E01382128288EE93E0A0E0B0E0848341
:1014B0009583A683B78324E032E03183208325EC33
:1014C00030E03587248724EC30E03787268720EC0E
:1014D00030E0318B208B21EC30E0338B228B22ECFF
:1014E00030E0358B248B26EC30E0378B268B118E49
:1014F000128E138E148EE4E8F3E01382128284833A
:101500009583A683B78386E192E0918380830895D3
:10151000789484B5826084BD84B5816084BD85B5CE
:10152000826085BD85B5816085BD80916E008160DA
:1015300080936E0010928100809181008260809380
:101540008100809181008160809381008091800082
:101550008160809380008091B10084608093B100AD
:101560008091B00081608093B00080919100826092
:10157000809391008091910081608093910080918F
:1015800090008160809390008091A10082608093A0
:10159000A1008091A10081608093A1008091A000B2
:1015A00081608093A000809121018260809321015D
:1015B00080912101816080932101809120018160CF
:1015C0008093200180917A00846080937A008091DA
:1015D0007A00826080937A0080917A0081608093A3
:1015E0007A0080917A00806880937A001092C1001E
:1015F000E091F702F091F80282E08083E091F3023B
:10160000F091F4021082E091F502F091F6028FEC75
:1016100080831092FF02E091FB02F091FC0286E0D1
:101620008083E091F902F091FA02808180618083E9
:10163000E091F902F091FA02808188608083E09164
:10164000F902F091FA02808180688083E091F902CA
:10165000F091FA0280818F7D808310928D0210922A
:101660008C021092C4021092E6020E946E0381E185
:1016700092E090938B0280938A0282E192E09093B1
:10168000890280938802A12CB12C65018601750125
:10169000A6019501C601B5010E948107A601950129
:1016A000C601B5010E94B906A6019501C601B501A2
:1016B0000E94F105A6019501C601B5010E945305DE
:1016C00088E4A82E81EEB82E85ECC82E82E4D82EB0
:1016D00017EDE12E13E2F12E09EC12E429E23CEDC4
:1016E0004BEC52E46EEA77E48EEC92E40E948107C0
:1016F0002BE7A22E24E1B22E20E9C22E22E4D22E24
:1017000019E2E12E1CEDF12E01E912E424EA30EF9A
:1017100042E952E466EF78E286E992E40E94B90673
:1017200048EBA42E4EE1B42E40E9C42E42E4D42E60
:1017300016EFE12E18E2F12E03E912E42AE939E16D
:1017400042E952E463E373E388E892E40E94F1051E
:1017500020E030E044E352E465E87BEE82E592E489
:101760000E9453050E9416038ECF0E942C0C08F491
:1017700081E008950E94CE0B0C94670C0E94600CCF
:1017800058F00E94590C40F029F45F3F29F00C9466
:10179000500C51110C949B0C0C94560C0E94780C1C
:1017A00068F39923B1F3552391F3951B550BBB2790
:1017B000AA2762177307840738F09F5F5F4F220FD5
:1017C000331F441FAA1FA9F335D00E2E3AF0E0E8CC
:1017D00032D091505040E695001CCAF72BD0FE2F16
:1017E00029D0660F771F881FBB1F261737074807AA
:1017F000AB07B0E809F0BB0B802DBF01FF27935862
:101800005F4F3AF09E3F510578F00C94500C0C94C9
:101810009B0C5F3FE4F3983ED4F3869577956795EC
:10182000B795F7959F5FC9F7880F911D9695879596
:1018300097F90895E1E0660F771F881FBB1F6217B5
:1018400073078407BA0720F0621B730B840BBA0B73
:10185000EE1F88F7E0950895990F0008550FAA0B21
:10186000E0E8FEEF16161706E807F907C0F01216B3
:101870001306E407F50798F0621B730B840B950BB6
:1018800039F40A2661F0232B242B252B21F408950B
:101890000A2609F4A140A6958FEF811D811D0895A8
:1018A00097F99F6780E870E060E008959FEF80EC13
:1018B000089500240A9416161706180609060895B6
:1018C00000240A9412161306140605060895092E1C
:1018D0000394000C11F4882352F0BB0F40F4BF2B8B
:1018E00011F460FF04C06F5F7F4F8F4F9F4F0895CB
:1018F00057FD9058440F551F59F05F3F71F04795C1
:10190000880F97FB991F61F09F3F79F087950895A5
:10191000121613061406551FF2CF4695F1DF08C0C4
:10192000161617061806991FF1CF869571056105E1
:1019300008940895E894BB2766277727CB0197F989
:1019400008950E942C0C08F48FEF0895EE0FFF1FEE
:10195000881F8BBF0790F691E02D1994F894FFCF64
:1019600000000000A90213024002F60271024F02B9
:10197000630200000000EB04BE041A059404B704DF
:04198000A404950422
:00000001FF
